:020000040800F2
:1000000090060020AD140008B5140008B7140008CD
:10001000B9140008BB140008BD140008000000005B
:10002000000000000000000000000000BF140008F5
:10003000C114000800000000C3140008C514000823
:10004000C7140008C7140008C7140008C714000824
:10005000C7140008C7140008C7140008C714000814
:10006000C7140008C7140008C7140008C714000804
:10007000C7140008C7140008C7140008C7140008F4
:10008000C7140008C7140008C7140008C7140008E4
:10009000C7140008C7140008C7140008C7140008D4
:1000A000C7140008C7140008C7140008C7140008C4
:1000B000C7140008C7140008C7140008C7140008B4
:1000C000C7140008C7140008C7140008C7140008A4
:1000D000C7140008C7140008C7140008C714000894
:1000E000C7140008C7140008C714000800F002F87D
:1000F00000F03AF80AA090E8000C82448344AAF188
:100100000107DA4501D100F02FF8AFF2090EBAE885
:100110000F0013F0010F18BFFB1A43F0010318473B
:100120002816000048160000103A24BF78C878C18D
:10013000FAD8520724BF30C830C144BF04680C60ED
:10014000704700000023002400250026103A28BF35
:1001500078C1FBD8520728BF30C148BF0B60704739
:100160001FB51FBD10B510BD01F0B3FA1146FFF762
:10017000F7FF00F082F801F0D1FA03B4FFF7F2FFC5
:1001800003BC01F0D9FA0000FB49096801F0010144
:1001900079B1F9498039096801F0010149B100E0FC
:1001A00000BF4FF0604109680029F9D04FF060426C
:1001B00010707047002100E0491C00EB4002C2EBC8
:1001C000C012B1EB421FF7DB704700B5EB48006887
:1001D00080F02000E94908604FF4FA70FFF7EAFF69
:1001E00000BD1FB5684600F011FC0020ADF804000A
:1001F000E34800906946E34800F099FB0121E1489B
:1002000000F013FC1FBD08B501213C2000F0E6FE04
:100210000121084600F0E2FE0121480500F0EBFE56
:10022000684600F0A8FAC020ADF800001C208DF848
:10023000030003208DF802006946D34800F010FA4D
:1002400008BD08B50121142000F0C8FE684600F082
:1002500092FA40F26130ADF8000002208DF8020001
:1002600010208DF803006946C4480C3800F0F8F9F6
:100270006946C64800F0F4F908BDFFF7E2FFFFF752
:10028000C2FFFFF7A2FFFFF7ACFF00BF4FF4003142
:10029000BC4800F0F1FC0028F8D10121B94800F079
:1002A000E8FB00BFBA49B74800F0C4FC0028F9D009
:1002B0000022A021B34800F032FC00BFB549B1488C
:1002C00000F0B8FC0028F9D01021AE4800F021FC65
:1002D00000BFB049891EAB4800F0ACFC0028F8D044
:1002E0000F21A84800F015FC00BFAA49891CA548A9
:1002F00000F0A0FC0028F8D00121A24800F0C5FBC6
:1003000000BF4FF400319F4800F0B6FC0028F8D140
:1003100001219C4800F0ADFB00BF9D49994800F0C9
:1003200089FC0028F9D00022A021964800F0F7FBB4
:1003300000BF9849934800F07DFC0028F9D01021B7
:10034000904800F0E6FB00BF9249891C8D4800F000
:1003500071FC0028F8D001218A4800F08AFB00BF18
:100360008B49884800F066FC0028F9D00122A021C2
:10037000844800F0D4FB00BF8549491C814800F047
:1003800059FC0028F8D000217E4800F08AFB00BF0D
:100390007F493F317B4800F04DFC0028F8D0794878
:1003A00000F0B9FB7C4908700121764800F06DFB34
:1003B00000BFFFF70AFFFCE700B585B001213C2034
:1003C00000F00CFE0121084600F008FE012148045F
:1003D00000F011FE04A800F0CEF90420ADF81000E2
:1003E00018208DF8130004A964480C3800F038F97F
:1003F0000820ADF8100004208DF8130004A95F4810
:100400000C3800F02DF9684600F0F8FE4FF4165055
:1004100000906946614800F088FE01215F4800F0C5
:1004200010FF05B000BD10B5044600BF80215B4839
:1004300000F0E2FF0028F9D02146584800F06EFF96
:1004400010BD10B5044603E014F8010BFFF7EBFFF5
:1004500020780028F8D110BD10B5044603E014F848
:10046000010BFFF791FE20780028F8D10A20FFF752
:100470008BFE10BD1CB54348008820F001004149A7
:10048000088001A800F077F9C020ADF8040014201E
:100490008DF8070001A93C4800F0E2F83A480C301A
:1004A000006840F0C00038490C31086000BF364891
:1004B0000830006800F0C000C028F8D132480C3085
:1004C000006820F0800030490C31086000BF2E48E1
:1004D0000830006800F080000028F8D12A480C306D
:1004E000006820F0400028490C31086000BF264811
:1004F0000830006800F040000028F8D122480C3095
:10050000006840F0400020490C31086000BF1E48E0
:100510000830006800F040000028F8D01A480C307D
:10052000006840F0800018490C31086000BF164890
:100530000830006800F080000028F8D0684600F01D
:100540001AF9C020ADF804001C208DF80700694698
:100550000D4800F085F80B48008840F40040094938
:1005600008800846008820F400400880084600887B
:1005700040F0010008801CBD800E00E00C08014026
:10058000A086010000540040000C01400010014012
:10059000010003008200070000000020004400402A
:1005A00010B50446CC48844208D10121042000F053
:1005B0002FFD0021042000F02BFD46E0C7488442B7
:1005C00008D10121082000F023FD0021082000F0BF
:1005D0001FFD3AE0C248844208D10121102000F0FA
:1005E00017FD0021102000F013FD2EE0BD488442CD
:1005F00008D10121202000F00BFD0021202000F077
:1006000007FD22E0B848844208D10121402000F0D3
:10061000FFFC0021402000F0FBFC16E0B3488442C0
:1006200008D10121802000F0F3FC0021802000F09F
:10063000EFFC0AE0AE48844207D10121801500F0AA
:10064000E7FC0021A01500F0E3FC10BD10B501216E
:10065000084600F0DDFC0021012000F0D9FC10BDAF
:100660002DE9F04102460025002600200023002449
:10067000002791F803C00CF00F0591F803C00CF0AF
:10068000100CBCF1000F03D091F802C04CEA050534
:1006900091F800C0BCF1000F31D0146800202BE0AD
:1006A0004FF0010C0CFA00F3B1F800C00CEA03069D
:1006B0009E4220D183004FF00F0C0CFA03F7BC438D
:1006C00005FA03FC4CEA040491F803C0BCF1280FBE
:1006D00006D14FF0010C0CFA00FCC2F814C00AE07D
:1006E00091F803C0BCF1480F05D14FF0010C0CFA92
:1006F00000FCC2F810C0401C0828D1D31460B1F827
:1007000000C0BCF1FF0F34DD546800202EE000F182
:10071000080C4FF0010808FA0CF3B1F800C00CEA1D
:1007200003069E4221D183004FF00F0C0CFA03F711
:10073000BC4305FA03FC4CEA040491F803C0BCF185
:10074000280F05D100F1080C08FA0CF8C2F8148043
:1007500091F803C0BCF1480F07D100F1080C4FF02D
:10076000010808FA0CF8C2F81080401C0828CED303
:100770005460BDE8F0814FF6FF7101800221817065
:100780000421C17070470246002093680B400BB1F2
:10079000012000E0002070470146886880B2704761
:1007A00002460020D3680B400BB1012000E000207E
:1007B00070470146C86880B2704701617047416167
:1007C00070470AB1016100E041617047C160704744
:1007D0004FF480320A438261816182618269826959
:1007E000704702460020434B18684FF6807318404C
:1007F00040EA021008433F4B186070473E49C86109
:100800007047F0B50A46002300240021002500F0BF
:100810000046B6F1004F02D1364EF16901E0354E87
:100820007168C0F3034583B200F44016B6F5401F6B
:1008300008D121F070612F4E766826F070662D4F3A
:100840007E6012E000F48016B6F5801F06D1032604
:1008500006FA05F4A14341F0706106E0460D360149
:1008600003FA06F6B14341F0706122B1460D36013C
:1008700003FA06F6314300F00046B6F1004F02D10C
:100880001C4EF16101E01B4E7160F0BD30B50022DD
:100890008B071C0F0F2303FA04F2164B08338C103E
:1008A00053F824309343134C08348D1044F825300A
:1008B00023468C1053F824308C07240F00FA04F4DC
:1008C00023430C4C08348D1044F8253030BD0A49C0
:1008D000DC3108607047000000080140000C014056
:1008E000001001400014014000180140001C0140AC
:1008F00000200140000001400000204210B50446E5
:10090000F748844209D10121480500F08EFB0021FF
:100910004FF4001000F089FB08E00121880500F089
:1009200084FB00214FF4800000F07FFB10BD2DE917
:10093000F04385B004460D460026B1460427DFF893
:10094000A483A6884FF6C0700640684600F0D9FA26
:10095000DDF80880E448B8FBF0F01FFA80F946EAB9
:100960000906A68020884FF6FE71084020800026E8
:10097000DE49286888420CD828684000B8FBF0F0AF
:1009800087B2042F00DA04273E4309F101002084D6
:1009900027E0E8884BF6FF71884206D1286800EB13
:1009A0004000B8FBF0F087B209E0286800EBC00116
:1009B00001EB0010B8FBF0F087B247F48047C7F3B3
:1009C0000B0008B947F0010747F4004006434FF415
:1009D000967009FB00F04FF47A7190FBF1F0401C27
:1009E0002084A683208840F00100208026884FF6CE
:1009F000F5300640A8886989084306432680A889FF
:100A000029890843208105B0BDE8F08341F288318F
:100A10000160002181804BF6FF71C18000210181BE
:100A200041814FF480418181704721B1028842F0B9
:100A30000102028004E002884FF6FE731A40028031
:100A4000704721B1828842F40062828004E082888B
:100A50004FF2FF731A408280704721B1828842F4BE
:100A60008052828004E082884EF6FF731A408280B2
:100A7000704721B1028842F48072028004E002884B
:100A80004FF6FF631A400280704721B1028842F49A
:100A90000072028004E002884FF6FF531A40028081
:100AA000704721B1028842F48062028004E002882B
:100AB0004FF6FF331A40028070470A4600218189B1
:100AC0004FF60173194002F0FE031943818170470C
:100AD00021B1828942F00102828104E082894FF6CD
:100AE000FE731A408281704721B1028842F04002B1
:100AF000028004E002884FF6BF731A4002807047FC
:100B00001AB183880B43838002E083888B43838000
:100B10007047018270470146088AC0B2704712B11F
:100B200041F0010102E04FF6FE7319400182704767
:100B300008B50246002000900092009808440090FA
:100B40000098008808BD21B1028842F4004202806A
:100B500003E00288C2F30E0202807047B1F5006F15
:100B600004D1028842F40062028004E002884FF25D
:100B7000FF731A4002807047B1F5005F04D102880C
:100B800042F40052028004E002884DF6FF731A40DE
:100B90000280704721B1028842F48052028004E052
:100BA00002884EF6FF731A4002807047B1F5006F5D
:100BB00004D1028842F40062028004E002884FF20D
:100BC000FF731A400280704721B1028842F0200270
:100BD000028004E002884FF6DF731A4002807047FB
:100BE0000146088B0012704721B1028842F01002C2
:100BF000028004E002884FF6EF731A4002807047CB
:100C000021B9028842F08002028004E002884FF697
:100C10007F731A4002807047B1F5804F05D0828BF8
:100C20004BF6FF731A40828303E0828B42F48042CA
:100C30008283704770B502460024002500230020FF
:100C4000958A138B1B0445EA030626F07F4404EAC9
:100C500001068E4201D1012000E0002070BD10B5D8
:100C600001460020002300228B8A0A8B120443EAEB
:100C7000020424F07F4010BD0CB502460020002382
:100C80000193009300920B0F019321F07F41019B90
:100C90001BB1009B1433009303E0090C009B183335
:100CA0000093009B1B680B400BB1012000E000206B
:100CB0000CBD002221F07F42D3438382704730B5C0
:100CC000024600200023948801F0E06504EA154301
:100CD00021F07F41948A0C4054B14BB1012008E0CF
:100CE0000054004000127A0040420F00A08601002C
:100CF000002030BD002221F07F42D3438382704721
:100D0000DF48006840F00100DD490860084640689F
:100D1000DC490840DA49486008460068DA4908407A
:100D2000D74908600846006820F48020086008461B
:100D3000406820F4FE0048604FF41F008860704750
:100D4000CF49096821F48031CD4A11601146096804
:100D500021F480211160B0F5803F03D0B0F5802FE1
:100D60000ED106E0C649096841F48031C44A1160D9
:100D700007E0C349096841F4A021C14A116000E0BD
:100D800000BF00BF704710B50146002200230020BD
:100D90004A11012A02D1BA4C236806E0022A02D184
:100DA000B74C236A01E0B64C636A01F01F020124CC
:100DB00094401C400CB1012000E0002010BD38B56B
:100DC000002000900024002500BF3120FFF7DBFF4A
:100DD00005460098401C00900098B0F5A06F01D027
:100DE000002DF2D03120FFF7CEFF08B1012400E042
:100DF0000024204638BD01460020A14A106820F09A
:100E0000F80040EAC10010607047A04908607047D0
:100E1000024600209A4B586820F47C1042EA0103F5
:100E20001843974B586070479849086670470146C9
:100E30000020934A506820F0030008435060704738
:100E40008F48406800F00C007047014600208C4A33
:100E5000506820F0F00008435060704701460020C1
:100E6000874A506820F4E0600843506070470146AC
:100E70000020834A506820F4605040EAC10050606E
:100E8000704729B17E4A527A02437D4B5A7204E080
:100E90007B4A527A82437A4B5A7270477B49D831E7
:100EA0000860704701460020754A506820F44040B1
:100EB0000843506070470021714A20321170704A17
:100EC00082F82010012802D004280AD104E0012170
:100ED0006B4A2032117005E00521694A20321170F9
:100EE00000E000BF00BF704769490860704764496F
:100EF000096A0143624A11627047654944390860D2
:100F0000704730B500210022002400235C4D6D683D
:100F100005F00C0121B1042905D0082923D105E0F1
:100F20005C4D056022E05B4D05601FE0544D6D682F
:100F300005F47012524D6D6805F48034022505EBFE
:100F400092421CB9544D554305600BE04C4D6D6801
:100F500005F400351DB1504D5543056002E04D4D7F
:100F60005543056002E04B4D056000BF00BF444D96
:100F70006D6805F0F0010909484D6B5C0568DD40BE
:100F800045603F4D6D6805F4E061090A434D6B5CB7
:100F90004568DD4085603A4D6D6805F46051C90AC9
:100FA0003E4D6B5C4568DD40C560354D6D6805F4B0
:100FB0004041890B3A4D6B5CC568B5FBF3F50561A3
:100FC00030BD29B12E4A526902432D4B5A6104E0CB
:100FD0002B4A526982432A4B5A61704729B1284AE9
:100FE00092690243264B9A6104E0254A9269824342
:100FF000234B9A61704729B1214AD2690243204BA1
:10100000DA6104E01E4AD26982431D4BDA617047FF
:1010100029B11B4AD2680243194BDA6004E0184A2E
:10102000D2688243164BDA60704729B1144A1269BC
:101030000243134B1A6104E0114A12698243104BB8
:101040001A61704712494039086070470F49C864F7
:1010500070470B49C87170470948406A40F080707A
:1010600007494862704701460020054A92680A40D5
:101070000AB1012000E000207047014988727047E2
:10108000001002400000FFF8FFFFF6FE00004242A1
:101090008004424200127A0000093D000200002054
:1010A0001200002010B50446FB48844209D10121FA
:1010B0008803FFF7ADFF00214FF48040FFF7A8FF42
:1010C00032E0F648844209D101214804FFF7ADFF20
:1010D00000214FF40030FFF7A8FF25E0F0488442DC
:1010E00009D101218804FFF7A0FF00214FF48020DF
:1010F000FFF79BFF18E0EB48844209D10121C804A7
:10110000FFF793FF00214FF40020FFF78EFF0BE065
:10111000E548844208D101210805FFF786FF002138
:101120004FF48010FFF781FF10BD2DE9F04786B026
:1011300005460E460024A24600BFA1460027B089FE
:1011400000B100BF2F462C8A4CF6FF700440F08897
:1011500004432C82AC894EF6F3100440B0883189E8
:101160000843718908430443AC81AC8A4FF6FF40C1
:101170000440B0890443AC8201A8FFF7C2FEC64810
:10118000874202D1DDF810A001E0DDF80CA0A889AB
:1011900000F4004040B10AEBCA0000EB0A103168CD
:1011A0004900B0FBF1F807E00AEBCA0000EB0A10B7
:1011B00031688900B0FBF1F86420B8FBF0F004015D
:1011C0002009642101FB1089A88900F4004040B186
:1011D000322000EBC900B0FBF1F000F0070004433F
:1011E00008E0322000EB09106421B0FBF1F000F0C0
:1011F0000F0004432C8106B0BDE8F0874FF4165170
:10120000016000218180C18001810C214181002188
:101210008181704710B502460020108A4FF2FF030B
:1012200018400B884C8823438C882343CC88234365
:101230001843108210BD0021018041808180C1804F
:10124000704721B1828942F40052828104E0828990
:101250004DF6FF731A4082817047F0B503460024B3
:1012600000260025002040F66A17B94200D100BFD1
:101270001846C1F3421401F01F06012707FA06F5CC
:10128000012C01D10C3004E0022C01D1103000E01F
:1012900014301AB107682F43076002E00768AF43B4
:1012A0000760F0BD1AB1838A0B43838202E0838A10
:1012B0008B4383827047028A4FF6F0731A40028292
:1012C000028A0A430282704782894FF2FF731A40F2
:1012D000828182890A438281704721B1828942F0EA
:1012E0000202828104E082894FF6FD731A408281F6
:1012F0007047028A4FF6DF731A400282028A0A435D
:101300000282704721B1028A42F48042028204E0E4
:10131000028A4BF6FF731A4002827047C1F308023B
:101320008280704701468888C0F308007047818931
:1013300041F0010181817047028BD2B20283028B9E
:1013400042EA012202837047028B02F47F42028349
:10135000028B0A430283704721B1828A42F0200245
:10136000828204E0828A4FF6DF731A4082827047DD
:1013700021B1828A42F01002828204E0828A4FF612
:10138000EF731A408282704721B1828A42F00802CC
:10139000828204E0828A4FF6F7731A408282704795
:1013A00021B1828942F40042828103E08289C2F342
:1013B0000E028281704721B1828A42F400628282E9
:1013C00004E0828A4FF2FF731A4082827047828A59
:1013D0004FF6FB731A408282828A0A4382827047E8
:1013E00021B1828A42F00202828204E0828A4FF6B0
:1013F000FD731A408282704702460020B1F5007FDB
:1014000000D100BF13880B400BB1012000E0002089
:10141000704701F40072B2F5007F00D100BFCA43EB
:101420000280704770B5024600240023002500208A
:1014300040F66A16B14200D100BFC1F3421501F077
:101440001F03012606FA03F3012D02D196893340CA
:1014500006E0022D02D1168A334001E0968A33401D
:101460000C12012606FA04F41688344013B10CB1AC
:10147000012000E0002070BD10B50022002340F6DE
:101480006A14A14200D100BF0A1201249440A3B201
:10149000DC43048010BD00000038014000440040DF
:1014A00000480040004C0040005000400948804780
:1014B00009480047FEE7FEE7FEE7FEE7FEE7FEE736
:1014C000FEE7FEE7FEE7FEE704480549054A064B4E
:1014D00070470000CB150008ED00000890000020C8
:1014E0009006002090020020900200200CB5002001
:1014F000019000906C48006840F480306A490860B0
:1015000000BF6948006800F4003000900198401C5A
:101510000190009818B90198B0F5A06FF1D1624818
:10152000006800F4003010B10120009001E00020BC
:1015300000900098012843D15C48006840F01000FA
:101540005A4908600846006820F003000860084611
:10155000006840F002000860534840685249486003
:101560000846406848600846406840F4806048602B
:101570000846406820F47C1048600846406840F403
:10158000E81048600846006840F08070086000BFBE
:101590004548006800F000700028F9D042484068D3
:1015A00020F00300404948600846406840F00200CF
:1015B000486000BF3C48406800F00C000828F9D1A2
:1015C0000CBD10B5FFF792FF10BD10B5364800688E
:1015D00040F001003449086008464068344908403A
:1015E0003149486008460068324908402E49086081
:1015F0000846006820F4802008600846406820F40F
:10160000FE0048604FF41F008860FFF7DAFF4FF0DC
:1016100000602949086010BD10B50021002000229B
:10162000214B5B6803F00C0121B1042906D0082985
:1016300028D107E0214B224C236027E01F4B204C90
:10164000236023E0184B5B6803F47010164B5B6853
:1016500003F48032022303EB904022B9194B434339
:10166000174C23600DE0104B5B6803F4003323B18B
:10167000144B4343124C236003E0104B4343104C84
:10168000236003E00D4B0E4C236000BF00BF064BF0
:101690005B68C3F303130C4CE15C094B1B68CB4044
:1016A000074C236010BD00000010024000200240E3
:1016B0000000FFF8FFFFF6FE08ED00E000127A00E0
:1016C0001800002000093D001C00002070477047F2
:1016D0007047754600F02CF8AE4605006946534643
:1016E00020F00700854618B020B5FFF7EDFEBDE8F5
:1016F00020404FF000064FF000074FF000084FF079
:10170000000B21F00701AC46ACE8C009ACE8C00909
:10171000ACE8C009ACE8C0098D46704710B5044676
:10172000AFF300802046BDE81040FEF726BD000064
:10173000004870472C00002001491820ABBEFEE78E
:101740002600020070470000681700080000002013
:101750002C00000028010008941700082C0000202D
:1017600064060000440100080000000000000102BF
:101770000304010203040607080902040608000026
:1017800000A24A040000000000000000010203045F
:041790000607080937
:04000005080014AD2E
:00000001FF
